:020000040800F2
:10000000B007002029020008C51A0008B11900082D
:10001000C11A00081F0400083D1E0008000000006F
:100020000000000000000000000000001B1D000890
:100030009504000800000000191D00081D1D00089F
:10004000430200084302000843020008430200087C
:10005000430200084302000843020008430200086C
:10006000430200084302000843020008430200085C
:10007000430200084302000843020008430200084C
:10008000430200084302000843020008430200083C
:100090002504000843020008430200084302000848
:1000A000430200084302000843020008430200081C
:1000B000430200084302000843020008430200080C
:1000C00043020008430200084302000843020008FC
:1000D00043020008430200084302000843020008EC
:1000E00043020008430200084302000843020008DC
:1000F00043020008430200084302000843020008CC
:1001000043020008430200084302000843020008BB
:1001100043020008430200084302000843020008AB
:10012000430200084302000843020008430200089B
:10013000430200084302000843020008430200088B
:100140003504000843020008430200084302000887
:10015000430200084302000843020008430200086B
:10016000430200084302000843020008430200085B
:100170004302000843020008430200080000000098
:10018000430200084302000800F002F800F03CF8C7
:100190000AA090E8000C82448344AAF10107DA45E2
:1001A00001D100F031F8AFF2090EBAE80F0013F0F8
:1001B000010F18BFFB1A43F0010318471825000070
:1001C00038250000103A24BF78C878C1FAD8520701
:1001D00024BF30C830C144BF04680C6070470000C1
:1001E0000023002400250026103A28BF78C1FBD840
:1001F000520728BF30C148BF0B6070471FB502F0DF
:1002000045FA1FBD10B510BD00F0CFF81146FFF73D
:10021000F5FF01F05FFE00F0EDF803B4FFF7F2FF29
:1002200003BC00F0F5F80000094880470948004782
:10023000FEE7FEE7FEE7FEE7FEE7FEE7FEE7FEE796
:10024000FEE7FEE704480549054A064B70470000F3
:10025000D91D000889010008B0010020B007002066
:10026000B0030020B003002053EA020C00F06980C4
:100270002DE9F04B4FF00006002B1FBFB3FA83F5BA
:1002800003FA05F424FA05F65E4012BF1643B2FAEB
:1002900082F502FA05F4C5F120051EBF22FA05FC1D
:1002A00044EA0C04203556EA044C4FEA144418BFC3
:1002B000641C4FF000084FF00009904271EB030CF2
:1002C00039D3002919BFB1FA81F701FA07F6B0FA5C
:1002D00080F700FA07F6C7F120071EBF20FA07FCD7
:1002E00046EA0C062037B6FBF4FCA7EB0507103FE7
:1002F00007F01F0BCBF120060CFA0BFB2CFA06F6CD
:1003000044BFB3460026202FA4BF5E464FF0000B2B
:100310005BEA060C08BF4FF0010B19EB0B09ABFBB6
:10032000027C48EB0608C01B06FB02CC0BFB03CC8F
:1003300071EB0C01C1E70B46024641464846BDE859
:10034000F08B13B54FF000004FF00001AFF30080C9
:10035000BDE81C4070474FF0000200B513469446BC
:100360009646203922BFA0E80C50A0E80C50B1F10D
:100370002001BFF4F7AF090728BFA0E80C5048BF21
:100380000CC05DF804EB890028BF40F8042B08BFBF
:10039000704748BF20F8022B11F0804F18BF00F8BB
:1003A000012B7047704770477047754600F02CF876
:1003B000AE4605006946534620F00700854618B052
:1003C00020B5FFF73FFFBDE820404FF000064FF09B
:1003D00000074FF000084FF0000B21F00701AC467A
:1003E000ACE8C009ACE8C009ACE8C009ACE8C00999
:1003F0008D46704710B50446AFF300802046BDE837
:100400001040FFF70ABF0000004870474C01002071
:1004100001491820ABBEFEE726000200704700BF6E
:10042000FEE7000010B5024800F047FA10BD0000DA
:100430008400002010B5024800F03FFA10BD000013
:10044000AC000020F8B507460C4615461E4640F2A3
:10045000FF100D49086000208860C860082008610E
:10046000380A0A4908704F70200A8870CC70280A30
:1004700008714D71300A8871CE716B460A46024987
:10048000034800F01EF8F8BD1C01002028000020E1
:10049000840000207047704710B5024692F8203063
:1004A000012B01D0022B06D1106840690843146863
:1004B0006061002010BD506A40F48020506201202D
:1004C000F8E7F0B504460D461E4694F82070206803
:1004D0008368A86800B900E000BF012F01D0022F97
:1004E0007CD103F0806030B903F0006018B903F0EC
:1004F0008050002873D0C3F30161022905D9606AD6
:1005000040F4000060620120F0BD012088403060AE
:10051000A86860B9B5F800C0E86840EA4C5C20689B
:1005200000F5C07000EB0110C0F800C00FE0D5E985
:1005300001C040EACC00D5F80CC040EA0C00D4F869
:1005400000C00CF5C07C0CEB011CCCF80000D5F809
:1005500010C0206800F5C07000EB0110C0F804C0A6
:10056000287D01280ED1206800F5C07000EB011035
:10057000406840F4807C206800F5C07000EB0110FA
:10058000C0F804C0D079000692F806C040EA0C40DA
:1005900092F805C040EA0C2C10794CEA000C206857
:1005A00000F5C07000EB0110C0F80CC0D078000658
:1005B00092F802C040EA0C4092F801C040EA0C20D8
:1005C00092F800C040EA0C00D4F800C00CF5C07CE2
:1005D0000CEB011CCCF80800206801E016E00FE0ED
:1005E00000F5C07000EB0110006840F0010C2068BD
:1005F00000F5C07000EB0110C0F800C0002083E7D8
:10060000606A40F40010606201207DE7606A40F497
:1006100080206062012077E7F0B504460A46216831
:1006200094F82050012D01D0022D7ED1424901F5D0
:100630000071086840F001000860086820F47C50F0
:1006400008600868566A40EA06200860107D00F0DD
:100650001F06012000FA06F3C8699843C861A1F596
:100660000071D069C8B9D1F80C029843C1F80C02E6
:10067000908880B2968940EA064601F51070576965
:1006800040F83760108880B2168940EA064601F5C6
:100690001070576900EBC7004660D069012819D176
:1006A000D1F80C021843C1F80C02908880B2168869
:1006B00040EA064601F51070576940F837609089A6
:1006C00080B2168940EA064601F51070576900EBC2
:1006D000C7004660906928B9D1F804029843C1F870
:1006E000040204E0D1F804021843C1F804021069BE
:1006F00028B9D1F814029843C1F8140204E0D1F8E3
:1007000014021843C1F81402106A012804D1D1F868
:100710001C021843C1F81C02D1F8000220F00100AD
:10072000C1F800020020F0BDFFE7606A40F48020BD
:1007300060620120F7E7000000640040704770B578
:10074000044694F82050012D01D0022D7CD151B9DE
:100750002068C06800F0030080B9606A40F40010AF
:100760006062012070BD2068006900F0030028B9B4
:10077000606A40F4001060620120F3E7206800F531
:10078000D87000EB0110006800F0040090609068E1
:1007900040B9206800F5D87000EB01100068400DEA
:1007A000106007E0206800F5D87000EB01100068C9
:1007B000C0085060206800F5D87000EB0110006898
:1007C00000F002004008D060206800F5D87000EB0F
:1007D0000110406800F00F001061206800F5D8702B
:1007E00000EB0110406800F47F40000A906120682F
:1007F00000F5D87000EB01104068000C50612068D3
:1008000000F5D87000EB011080681870206800F5C2
:10081000D87000EB0110806800F47F40000A587027
:10082000206800F5D87000EB0110806800F47F00AC
:10083000000C9870206800F5D87000EB01108068FB
:10084000000ED870206800E031E000F5D87000EBB1
:100850000110C0681871206800F5D87000EB011015
:10086000C06800F47F40000A5871206800F5D87015
:1008700000EB0110C06800F47F00000C9871206844
:1008800000F5D87000EB0110C068000ED87131B9C6
:100890002068C06840F020002668F06005E020680D
:1008A000006940F020002668306100205AE7606A45
:1008B00040F480206062012054E72DE9F05F044697
:1008C0000025206846692068D0F804902068876871
:1008D0002068D0F80CA02068D0F810B02068D0F8BC
:1008E000188006F00100002855D007F00100C0B1C3
:1008F00001202168886007F0020018B1204600F04E
:100900000AFB0EE007F0040010B145F4006508E0B2
:1009100007F0080010B145F4805502E0204600F0D1
:10092000F9FA07F48070C8B14FF4807021688860CC
:1009300007F4007018B1204600F0EFFA0EE007F45B
:10094000806010B145F4005508E007F4006010B174
:1009500045F4804502E0204600F0DEFA07F48030DE
:10096000C8B14FF480302168886007F4003018B1B6
:10097000204600F0D4FA0EE007F4802010B145F4D0
:10098000004508E007F4002010B145F4803502E08E
:10099000204600F0C3FA06F0080038B10AF0100053
:1009A00020B145F4007510202168C86006F00400ED
:1009B00040B10AF0080028B108202168C86020462C
:1009C00000F00CFA06F0020038B12068C06800F0B0
:1009D000030010B1204600F003FA06F0400038B1E1
:1009E0000BF0100020B145F48065102021680861EB
:1009F00006F0200040B10BF0080028B10820216863
:100A00000861204600F054FA06F0100038B1206862
:100A1000006900F0030010B1204600F04AFA06F425
:100A2000003040B109F0100028B110202168486062
:100A3000204600F03FFA06F4803040B109F008008B
:100A400028B1082021684860204600F069FA06F4C1
:100A5000004088B309F0040078B306F4807020B138
:100A600008F0010008B145F0010506F4007020B15E
:100A700008F0020008B145F0020506F4806020B1DC
:100A800008F0040008B145F0040506F40060A0B1C8
:100A900008F0700088B108F07000402817D006DC1C
:100AA00010280BD020280CD0302819D10CE0502869
:100AB00010D0602814D110E01DE019E045F00805C1
:100AC0000FE045F010050CE045F0200509E045F089
:100AD000400506E045F0800503E045F4807500E040
:100AE00000BF00BF2068806920F070002168886125
:100AF0000420216848602DB1606A28436062204666
:100B0000FFF71CFEBDE8F09F70B504460CB901204C
:100B100070BD94F8200010B9204600F0AFF82068AE
:100B2000006820F002002168086000F00FFB054615
:100B30000DE000F00BFB401B0A2808D9606A40F466
:100B400000306062052084F820000120E0E7206882
:100B5000406800F002000028EBD12068006840F0F7
:100B600001002168086000F0F1FA05460DE000F090
:100B7000EDFA401B0A2808D9606A40F40030606230
:100B8000052084F820000120C2E72068406800F0BA
:100B900001000028EBD0207E012806D120680068E3
:100BA00040F080002168086005E02068006820F0BF
:100BB000800021680860607E012806D120680068F6
:100BC00040F040002168086005E02068006820F0DF
:100BD000400021680860A07E012806D120680068D6
:100BE00040F020002168086005E02068006820F0DF
:100BF000200021680860E07E012806D12068006896
:100C000020F010002168086005E02068006840F0CE
:100C1000100021680860207F012806D12068006844
:100C200040F008002168086005E02068006820F0B6
:100C3000080021680860607F012806D120680068EC
:100C400040F004002168086005E02068006820F09A
:100C5000040021680860D4E90201084321690843BF
:100C6000616908436168491E08432168C861002022
:100C70006062012084F82000002049E710B586B0AA
:100C80000446142101A8FFF766FB4E4920688842FC
:100C900041D14D480068401C4B4908600846006837
:100CA00001280FD100BF002000904848006840F0A4
:100CB0000070464908600846006800F00070009027
:100CC00000BF00BF00BF00200090404810380068FF
:100CD00040F008003D49103908600846006800F0FF
:100CE0000800009000BF00BF032001900220029086
:100CF00000200390032004900920059001A93448A6
:100D000000F024F900221146142000F0A9FA142062
:100D100000F096FA54E02F492068884250D100BF75
:100D2000002000902948006840F080602749086052
:100D30000846006800F08060009000BF00BF2248B5
:100D40000068401C204908600846006801280FD14F
:100D500000BF002000901D48006840F000701B4953
:100D600008600846006800F00070009000BF00BFF7
:100D700000BF0020009015481038006840F00200C5
:100D80001249103908600846006800F0020000901F
:100D900000BF00BF6020019002200290002003905D
:100DA000032004900920059001A90B4800F0CEF81B
:100DB00000221146402000F053FA402000F040FA93
:100DC00006B010BD0064004014000020403802400E
:100DD000000C024000680040000402407047000020
:100DE00010B58AB0044601AB03AA00212046FFF7E4
:100DF000A6FC0398A0F20120072851D2DFE800F0FA
:100E00000405060708090A0000BF00BF00BF00BFB5
:100E100000BF00BF0398401E2349087008460078B1
:100E200000EB8000214931F8100000B21E4909781A
:100E300001EB81011D4A02EB410108819DF805008B
:100E40009DF8041040EA01201749097801EB81015F
:100E500022F811009DF807009DF8061040EA0120D5
:100E600000B21149097801EB810102EB4101488090
:100E70009DF809009DF8081040EA012000B20A49D7
:100E8000097801EB810102EB410188809DF80A009D
:100E90000549097801EB810102EB4101887100E00D
:100EA00000BF00BF0AB010BD38000020D4000020F1
:100EB00070477047704770B5044694F820000128C9
:100EC00022D1022084F820002068006820F0010070
:100ED0002168086000F03AF905460DE000F036F9A7
:100EE000401B0A2808D9606A40F40030606205207F
:100EF00084F82000012070BD2068406800F00100E7
:100F00000028EBD16062F6E7606A40F4002060627E
:100F10000120F0E77047704770477047704770478F
:100F20007047000070B5044600F010F906462546EB
:100F3000681C10B104480078054400BF00F006F9B1
:100F4000801BA842FAD370BD20000020F8B50246ED
:100F50000B460025002400200021DCE0012606FAD3
:100F600001F51E6806EA0504AC4273D15E68022EE4
:100F700002D05E68122E13D1CF0802F1200656F877
:100F800027004E07F70E0F26BE40B0434F07FF0E57
:100F90001E69BE403043CF0802F1200646F8270004
:100FA00010684F000326BE40B0431E7906F00306CA
:100FB0004F00BE40304310605E68012E08D05E686E
:100FC000022E05D05E68112E02D05E68122E13D15B
:100FD00090684F000326BE40B0434F00DE68BE401D
:100FE00030439060506801268E40B0431E79C6F3AE
:100FF00000168E4030435060D0684F000326BE403C
:10100000B0434F009E68BE403043D0605E6806F03B
:101010008056B6F1805F7DD100BF00260096404E1D
:10102000366846F480463E4F3E603E46366806F4DB
:101030008046009600BF00BF3A4E8F0856F8270042
:101040008E07370F0F26BE40B043374EB24202D153
:10105000002624E05EE0354EB24201D101261EE0BA
:10106000334EB24201D1022619E0324EB24201D1D2
:10107000032614E0304EB24201D104260FE02F4E79
:10108000B24201D105260AE02D4EB24201D1062618
:1010900005E02C4EB24201D1072600E008268F075A
:1010A0003F0FBE4030431F4E8F0846F82700264EA4
:1010B0003068A0435E6806F48036B6F5803F00D104
:1010C0002043214E3060361D3068A0435E6806F430
:1010D0000036B6F5003F00D120431B4E361D306070
:1010E000361D3068A0435E6806F48016B6F5801F92
:1010F00000D12043144E08363060361D3068A043BE
:101100005E6806F40016B6F5001F00D120430E4EAF
:101110000C363060491C1029FFF420AFF8BD0000E8
:1011200044380240083801400000024000040240F8
:1011300000080240000C024000100240001402406F
:1011400000180240001C0240003C014001480068B9
:101150007047000018000020034800680349097820
:101160000844014908607047180000202000002052
:1011700010B50D48006840F400700B49086008463F
:10118000006840F4806008600846006840F48070A1
:101190000860032000F0A2F8002000F007F800F03B
:1011A0002BF8002010BD0000003C024070B5044642
:1011B0000E4800784FF47A71B1FBF0F00C490968E1
:1011C000B1FBF0F5284600F0D9FB08B1012070BD55
:1011D000102C07D200222146501E00F041F805488D
:1011E000046001E00120F2E70020F0E72000002089
:1011F000240000201C00002008B500BF0020009043
:101200000E48006840F480400C49086008460068B9
:1012100000F48040009000BF00BF00BF002000909D
:10122000081F006840F08050091F086008460068E9
:1012300000F08050009000BF00BF08BD443802405D
:1012400001460846002809DB00F01F0301229A40EE
:1012500043099B0003F1E023C3F8002100BF70475E
:101260002DE9F05F80460D461646002700F0E8FDA8
:10127000074639462A46334601F00700C0F1070AFF
:10128000BAF1040F02D94FF0040A01E0C0F1070AD5
:10129000D14600F1040ABAF1070F02D24FF0000A5A
:1012A00001E0A0F1030AD4464FF0010A0AFA09FA54
:1012B000AAF1010A0AEA020A0AFA0CFA4FF0010B33
:1012C0000BFA0CFBABF1010B0BEA030B4AEA0B0424
:1012D0002146404600F0BCFDBDE8F09F00BF00F095
:1012E0000702064B19684FF6FF031940044B0B43E6
:1012F00043EA0221014B196000BF70470CED00E08A
:101300000000FA0570B504460D460CB9012070BD09
:101310005848006800F00F00A84209D255490D70E6
:101320000846006800F00F00A84201D00120EEE757
:10133000207800F0020002281DD1207800F004007F
:10134000042805D14C48006840F4E0504A49086040
:10135000207800F00800082805D14748006840F4CC
:101360006040454908604448006820F0F000A168EA
:10137000084341490860207800F00100A8B3606884
:10138000012807D13C4808380068C0F34040B8B98C
:101390000120BCE76068022802D06068032807D1FA
:1013A000354808380068C0F3406048B90120AEE70E
:1013B000314808380068C0F3400008B90120A6E7AA
:1013C0002D48006820F00300616808432A4908603E
:1013D000FFF7BCFE064609E0FFF7B8FE801B41F2AE
:1013E0008831884202D9032091E707E0224800684B
:1013F00000F00C006168B0EB810FEDD11D48006872
:1014000000F00F00A84209D91A490D70084600687B
:1014100000F00F00A84201D0012078E7207800F00A
:101420000400042807D11448006820F4E050E16863
:10143000084311490860207800F00800082808D106
:101440000D48006820F46040216940EAC1000A4963
:10145000086000F017F808490968C1F30311074A4A
:10146000515CC840064908600020FFF79FFE00203D
:101470004DE70000003C024008380240BC2600084E
:10148000240000202DE9F047002400250026A14675
:101490002548006800F00C0020B1042805D0082879
:1014A0003AD105E0DFF8849039E0DFF8849036E047
:1014B0001D48001F006800F03F041B48001F006823
:1014C00000F4800078B11A481749091F0968C1F370
:1014D0008811A0FB01700146224600233846FEF722
:1014E000C3FE05460EE011480F49091F0968C1F304
:1014F0008811A0FB01700146224600233846FEF702
:10150000B3FE05460848001F0068C0F30140401CB8
:101510004600B5FBF6F902E0DFF8109000BF00BF0F
:101520004846BDE8F0870000083802400024F40077
:10153000001BB700F8B504460CB90120F8BD2078AF
:1015400000F00100002874D0F948006800F00C0099
:1015500004280DD0F648006800F00C00082813D1CC
:10156000F348001F006800F48000B0F5800F0BD135
:10157000EF4808380068C0F34040002859D0606840
:10158000002856D10120D9E700BF6068B0F5803F40
:1015900008D1E7480838006840F48030E449083949
:1015A00008601EE06068B0F5A02F0DD1E048083853
:1015B000006840F48020DE49083908600846006869
:1015C00040F4803008600CE0D9480838006820F406
:1015D0008030D749083908600846006820F4802028
:1015E000086000BF606890B1FFF7B0FD054606E0F7
:1015F000FFF7ACFD401B642801D903209EE7CC48CF
:1016000008380068C0F340400028F1D011E0FFF72F
:101610009DFD054606E0FFF799FD401B642801D9B2
:1016200003208BE7C24808380068C0F34040002818
:10163000F1D1207800F0020002285FD1BC48006898
:1016400000F00C0058B1BA48006800F00C000828FF
:101650001CD1B748001F006800F48000B0B9B4483E
:1016600008380068C0F3400020B1E068012801D0CC
:10167000012063E7AE480838006820F0F8002169CF
:1016800040EAC100AA490839086037E0E06800B3C1
:101690000120A8490860FFF759FD054606E0FFF75D
:1016A00055FD401B022801D9032047E7A048083810
:1016B0000068C0F340000028F1D09D480838006859
:1016C00020F0F800216940EAC10099490839086012
:1016D00014E0002097490860FFF738FD054606E052
:1016E000FFF734FD401B022801D9032026E790486C
:1016F00008380068C0F340000028F1D1207800F0DD
:10170000080008282CD16069A8B101208A49086026
:10171000FFF71CFD054606E0FFF718FD401B0228F9
:1017200001D903200AE782486C300068C0F340000A
:101730000028F1D014E000207F490860FFF706FD83
:10174000054606E0FFF702FD401B022801D90320F1
:10175000F4E677486C300068C0F340000028F1D10F
:10176000207800F00400042870D10026704838303A
:10177000006800F0805090B900BF002000906C48D5
:101780003830006840F080506949383108600846B8
:10179000006800F08050009000BF00BF012667483D
:1017A000006800F48070B0B96448006840F480704C
:1017B00062490860FFF7CAFC054606E0FFF7C6FC71
:1017C000401B022801D90320B8E65C48006800F4F9
:1017D00080700028F2D000BFA068012808D15448CA
:1017E0006830006840F001005149683108601DE030
:1017F000A06805280DD14E486830006840F004000C
:101800004B49683108600846006840F001000860F4
:101810000CE047486830006820F001004449683116
:1018200008600846006820F00400086000BFA06857
:10183000A8B1FFF78BFC054609E0FFF787FC401BCA
:1018400041F28831884202D9032077E626E0384801
:1018500068300068C0F340000028EED013E0FFF7C6
:1018600075FC054608E0FFF771FC401B41F288312A
:10187000884201D9032061E62D4868300068C0F332
:1018800040000028EFD1012E07D1294838300068E8
:1018900020F0805026493831086000BFA069B8B3F5
:1018A0002348006800F00C0008285ED0A0690228D8
:1018B00046D100201F490866FFF748FC054606E0B0
:1018C000FFF744FC401B022801D9032036E61848E4
:1018D00008380068C0F340600028F1D1D4E907015E
:1018E0000843616A40EA81110122A06AC2EB5000FC
:1018F00041EA00412C20005D41EA00600C49091FCB
:10190000086001200B490866FFF720FC054607E048
:101910002DE0FFF71BFC401B022801D903200DE638
:10192000034808380068C0F340600028F1D01EE08A
:101930000838024000004742800E474200700040D5
:1019400000200C490866FFF701FC054606E0FFF79A
:10195000FDFB401B022801D90320EFE50648006883
:10196000C0F340600028F2D101E00120E6E500204C
:10197000E4E50000000047420038024070B504462C
:101980002546681EB0F1807F01D301200FE0681E5C
:101990004FF0E02148610F214FF0FF3000F058FA7E
:1019A00000204FF0E021886107200861002070BD11
:1019B00000BFFEE710B50E480E49086003204860DE
:1019C00000210C488160C1604FF4102101614FF487
:1019D000001141610021017641768176C17601775F
:1019E0004177FFF791F808B1FEF755FD10BD0000F3
:1019F000006400408400002010B50E480E490860C5
:101A00000320486000210C488160C1604FF4102120
:101A100001614FF400114161002101764176817628
:101A2000C17601774177FFF76FF808B1FEF733FD14
:101A300010BD000000680040AC00002008B500BFE9
:101A4000002000901D48006840F002001B4908601B
:101A50000846006800F00200009000BF00BF00BF11
:101A6000002000900846006840F001000860084629
:101A7000006800F00100009000BF00BF00BF002020
:101A800000900846006840F00800086008460068BA
:101A900000F00800009000BF00BF00BF00200090D1
:101AA0000846006840F0800008600846006800F0C2
:101AB0008000009000BF00BF08BD00003038024029
:101AC00000BFFEE770470000B0EE401A10B99FED6E
:101AD000790A704790ED100A80ED110A90ED0F0A17
:101AE00080ED100AC0ED060A80ED071A30EEC10A3B
:101AF00080ED0F0A0178002975D190ED010AD0ED33
:101B00000F1A20EE210A80ED090A90ED0A0AD0EDA5
:101B1000021A90ED0F2A01EE820A80ED0A0A90ED7A
:101B20000D0A80ED0E0A90ED0C0A80ED0D0A90ED85
:101B30000F0AD0ED101A30EE610A80ED0C0A90ED1C
:101B4000030AD0ED0C1A20EE210A80ED0B0A90ED6D
:101B50000A0AD0ED051AB4EEE10AF1EE10FA04DD3E
:101B600090ED050A80ED0A0A10E090ED0A0AD0ED2A
:101B7000051AF1EE611AB4EEE10AF1EE10FA05D29F
:101B800090ED050AB1EE400A80ED0A0A90ED090ACF
:101B9000D0ED0A1A30EE210AD0ED0B1A30EE210AF0
:101BA00080ED080A90ED080AD0ED041AB4EEE10ABF
:101BB000F1EE10FA04DD90ED040A80ED080A76E0FB
:101BC00090ED080AD0ED041AF1EE611AB4EEE10AC4
:101BD000F1EE10FA6BD290ED040AB1EE400A80EDFE
:101BE000080A64E0FFE70178012960D190ED0F0A4F
:101BF000D0ED101A30EE610AD0ED011A20EE210A64
:101C000080ED090A90ED020AD0ED0F1A20EE210AAC
:101C100080ED0A0A90ED0D0A80ED0E0A90ED0C0A97
:101C200080ED0D0A90ED0F0AD0ED101AB0EE002AEB
:101C300002EE610AD0ED111A30EE210A80ED0C0A95
:101C400090ED030AD0ED0C1A20EE210A80ED0B0A6C
:101C500090ED090AD0ED0A1A30EE210AD0ED0B1AE8
:101C600030EE210AD0ED081A30EE210A80ED080A84
:101C700090ED080AD0ED041AB4EEE10AF1EE10FA84
:101C800004DD90ED040A80ED080A10E090ED080AEA
:101C9000D0ED041AF1EE611AB4EEE10AF1EE10FA99
:101CA00005D290ED040AB1EE400A80ED080A90EDED
:101CB000080A0EE70000000000B102B97047017089
:101CC00092ED001A80ED011A92ED011A80ED021AD0
:101CD00092ED021A80ED031A80ED040AC0ED050AA8
:101CE0009FED0C1A80ED0E1A80ED0D1A80ED0C1A86
:101CF0009FED081A80ED081A80ED0B1A80ED0A1A84
:101D000080ED091A80ED111A80ED101A80ED0F1A7E
:101D100000BFD3E7000000007047704710B5FFF721
:101D20001BFA10BD00B593B0302107A8FEF713FBD6
:101D3000142102A8FEF70FFB00BF002001902448E9
:101D4000006840F08050224908600846006800F0B2
:101D50008050019000BF00BF00BF002001901D48CF
:101D6000006840F480401B4908600846006800F4A1
:101D70008040019000BF00BF012007900004089040
:101D800002200D9041050E9106210F91A82110917E
:101D9000022111910421129107A8FFF7CBFB08B192
:101DA000FEF779FB0F2002900220039000200490A0
:101DB0004FF4A05005904FF480500690052102A8E2
:101DC000FFF7A0FA08B1FEF766FB13B000BD0000F4
:101DD00040380240007000401448006840F4700031
:101DE000124908601248006840F00100104908607C
:101DF00000200F49083108600D4800680D4908406F
:101E00000B4908600C48091D0860081F006820F491
:101E10008020091F0860002005490C3108604FF040
:101E200000600249803908607047000088ED00E0DA
:101E300000380240FFFFF6FE1030002400BFFEE72E
:101E400002480068C0F30220704700000CED00E07B
:101E500010B5002804DB0A07130E054A135406E0E8
:101E60000A07140E034A00F00F031B1FD45410BDC1
:101E700000E400E018ED00E000B58BB0012009900F
:101E8000002007900120089000200190029003900C
:101E900004900690059001A90C48FEF7BDFB0B4885
:101EA000FFF709F802210948FEF7F6FA0E200A901A
:101EB000069001A90648FEF7AFFB0548FEF7FBFFB9
:101EC00002210348FEF7E8FA0BB000BD84000020B1
:101ED000AC0000202DED088B84B0FFF749F9FFF727
:101EE00021FFFFF7ABFDFFF765FDFFF785FDFFF76E
:101EF000C3FFDFED700A9FED6F0A6F4A00216F4844
:101F0000FFF7DAFE00BFD3E06D48008D6D49096828
:101F1000884271DD6A48018D6A48006800F5966064
:101F2000814269DC684A07CA01AB07C36448008D77
:101F3000664908600A20FEF7F5FF6148008D634995
:101F40000968884228DD62480068401C60490860D2
:101F50000846006800F09BF941EC1B0B9FED5D0B00
:101F600053EC102B00F0AAF941EC190B5B48006808
:101F700000F08DF941EC1A0B53EC192B00F09CFA90
:101F800041EC180B00F054F9544908600846006809
:101F9000002801DA00200860DFED460A9FED450ABF
:101FA00001AA00214548FFF787FE464800684B49D3
:101FB0000968084401EE100AB8EEC11AF0EE410AB1
:101FC0003F48008D01EE100AB8EE411AB0EE410A0A
:101FD0003A48FFF779FD394991ED080ABDEEC00A8C
:101FE00010EE101A08B200231A461946FEF72AFA14
:101FF0000A20FEF797FF00BF3148018D3148006885
:1020000000F59660814246DD2D48018D2D4800681F
:1020100000F5FA6081423EDC2B4A0C3207CA01AB64
:1020200007C3DFED240A9FED230A01AA00212348FC
:10203000FFF742FE2248008D00EE900AF8EE600A9B
:10204000B0EE600A1F48006800F5FA6000EE900AE2
:10205000F8EEE00A1948FFF737FD184991ED080A34
:10206000BDEEC00A10EE101A08B200231A46194637
:10207000FEF7E8F90020164908604FF4FA70174996
:1020800008601048006800F5FA600E4908600A20F0
:10209000FEF748FF00BF0B480068B0F5FA5F07DBAA
:1020A00008480068B0F5005F02DA002005490860C2
:1020B0002AE700000060EA46982600083C0000205D
:1020C000D400002004000020A426000810000020F6
:1020D000080000209A9999999999B93F0C0000201D
:1020E00010B591EA030F48BF83F0004300F1EC8183
:1020F000841A71EB030C05D2121943EB0C03001B7D
:1021000061EB0C01DFF824E14FEA1154A4EB135CFE
:102110001EEA430F18BF9EEA445F73D023EA0E0302
:10212000DCF1200E21EA045143F4801332D322FA69
:102130000CFE10EB0E0023FA0CFE41EB0E01CCF16D
:10214000200E03FA0EFE10EB0E0051F10001B1F566
:10215000801FCCF1200E32D201EB045112FA0EF2A4
:10216000BDE8104058BF7047401C38BF5FEA4202CC
:1021700018BF7047002814BF20F0010041F1000192
:102180004FEA410313F5001F38BF7047A1F1C0416A
:1021900000F08CB9012A43EB0302ACF1200CDCF116
:1021A0001F0E32BF4FF0000E23FA0CF310EB0300AA
:1021B00041EB0451B4EB115FD0D0A1EB045101F518
:1021C000801149085FEA300001EB04510ED350F151
:1021D000000038BF12FA0EFE08D1BDE81040C9E772
:1021E000401C38BF5FEA4202CAD1C3E7BDE81040D5
:1021F0004FEA410313F5001F38BF7047A1F1C041FA
:1022000000F054B99EEA445F08D011EA5E0FBDE8C1
:10221000104004BF01F0004100207047BDE81040AD
:1022200070B500F0F5F800BF64FBBE3E0000E0FFB3
:102230004FEA41034FEA5353A3F58063D3F11E03E2
:10224000C8BFD3F1210C0CDD4FF0004242EAC1229D
:1022500042EA505232FA03FC8CEAE17CACEBE170CA
:102260007047102BC4BF0020704703F5787CBCF189
:10227000FF3F04D06FF0004282EA2100704770B542
:1022800000F0C6F84992248000207047F2E710F071
:10229000004248BF4042B0FA80F310FA03F10AD07E
:1022A000C3F11D0303F580634FEA415002EB035273
:1022B00002EBD12170474FF000007047DFF848C1B2
:1022C00070B51CEA111E1EBF1CEA13159EEA0C0F06
:1022D00095EA0C0F00F06F8081EA030423EA4C13A7
:1022E0004EEAD47E21EA4C1141F4801143F480136C
:1022F000AE44A1FB024CA0FB0365AEF17F7E361914
:1023000055EB0C05A1FB034C4CF10003A0FB021C98
:1023100016EB0C06654153F10003094218BF46F065
:10232000010613F4007F0BD14FEA03314FEA053069
:10233000340341EA155140EA16506FF003020AE0F7
:102340004FEAC3214FEAC520F40241EA555140EA61
:1023500056506FF0020202EB2E4201EB025585EA65
:10236000CE710AD05FEA440C18BF24F0004450F14B
:10237000000041F1000120EAD47040F2FE7C624589
:1023800000D270BDA84214BF4FF080444FF04044CB
:10239000002E08BF0024BEF1806FA8BFA1F1C0418C
:1023A000BDE8704080F282804FF0000001F1C04132
:1023B00001F0004170479EEA0C0F0CEA131518BF9C
:1023C00095EA0C0F06D04FF0000081EA030E0EF0E4
:1023D000004170BD00F01CF88900013E00F007B814
:1023E00000F009B84FEA430C5FEA5C5C08D081EA70
:1023F000030100F05BB84FEA410C5FEA5C5CF6D188
:102400004FF00000014970470000FF070000F87F0F
:102410000EF1020E2EF0030E5EF8046B364205D468
:10242000012A43EB030515F5001F12D8012841EBE3
:10243000010C1CF5001F0CD80ED14FEAD17C15F50C
:10244000001F0CEB4C0C0CF1020C08BF4CEBD37CC6
:1024500004E04FF0080C01E04FEAD37C0CEB4C0594
:1024600026FA05F606F00706B6F1040C06D20EEBC6
:10247000860CBDE870404CF0010C6047DFE80CF0C2
:10248000090B02024FF000414FF00000A1F50021BE
:1024900070BD19461046012851EB010418BFD4F550
:1024A000001484BF002001F0004170BD0808A0F5B1
:1024B00000114FEA3101704710B591EA030F48BF90
:1024C00083F000433FF514AE841A71EB030C07D27E
:1024D00012198CF0004C43EB0C03001B61EB0C0158
:1024E000DFF8A4E14FEA1154A4EB135C1EEA430F9A
:1024F00018BF9EEA445F00F0B08023EA6E035242A8
:1025000021EA0451C3EB6E0338BF5B1EDCF1200EE1
:1025100025D322FA0CFE10EB0E0043FA0CFE41EB21
:102520000E01CCF1200E03FA0EFE10EB0E0051F15D
:102530000001CCF1200E29D412FA0EF201EB045165
:10254000BDE8104058BF7047401C1CBFB2F1004F9F
:10255000704700280CBF491C20F00100704712EBA7
:10256000020E43EB030218BF4FF0010E4EEA420287
:10257000ACF1200CDCF11E0E54D943FA0CFE10EB2A
:102580000E0051F1FF31CCF11E0ED5D50EF1010E2A
:1025900012FA0EFE404141EB010101EB445C5FEA9F
:1025A0005C5C10D910EBDE7001EB045138BFBEF15A
:1025B000004FBDE8104018BF704700280CBF491CF1
:1025C00020F00100704730D24FEAD42C11F50011F1
:1025D00024F400641BD0B1FA81F20B3AA41AA41EB1
:1025E000D2F12003914030FA03F31943904001EBFC
:1025F000CC71002C01EB0451BDE81040A8BF70471E
:1026000001F1C0414FF0000001F000417047B0FA05
:1026100080F310FA03F100D110BDE41A173C48050D
:10262000C90AE4E701EB045110BD491001EB045164
:10263000BDE810404FEA300002E04FF00001704763
:102640004A0008BF0042F8D0B2F5001F28BF70470B
:1026500001F000414FF0000070479EEA445F07D050
:1026600011EA5E0FBDE8104004BF00210020704752
:10267000BDE8104070B5FFF7CBFE00BF40DFF63E6F
:1026800083F00041104670470000E0FF4FF04070BB
:10269000E1EE100A704700000000C8410000A040B1
:1026A0000000A0400000004000000000000000000A
:1026B000000070410000A0400000A04000000000A9
:1026C00000000000010203040607080900000000E2
:1026D00001020304F4260008000000203C00000072
:1026E000C4010008302700083C00002074070000E7
:1026F000E0010008000000000000000000000000F1
:1027000000000000000000000000000000000000C9
:1027100010000000010000000024F4000000000090
:1027200000000000000000000000000000000000A9
:040000050800018965
:00000001FF
